:100000000C9473060C94B7060C94B7060C94B706C0
:100010000C94B7060C94B7060C94B7060C94B7066C
:100020000C94B7060C94B7060C94CA2B0C948E2B28
:100030000C948F190C94B7060C94B7060C94B70661
:100040000C94B7060C94B7060C94B7060C94B7063C
:100050000C94B7060C94551A0C94B7060C94B7067A
:100060000C94B7060C94B7060C94B7060C94B7061C
:100070000C94B7060C94B7060C94B7060C94B7060C
:100080000C94B7060C94B7060C94B7060C94B706FC
:100090000C94B7060C94B7060C94B7060C94B706EC
:1000A0000C94B7060C94B7060C94B70629001400FC
:1000B0001A000800150017001C0018000C001200A0
:1000C00013002A002B0004001600070009000A0094
:1000D0000B000D000E000F0000002800390000008A
:1000E0001D001B000600190005001100100036005D
:1000F0003700E5000000E30000000000C000C00081
:100100002C000000C100330034000000F1A1F1A276
:1001100000000000000000000000000000000000DF
:1001200000000000000000000000000000000000CF
:1001300000010101010101000101010100000000B5
:1001400000000000000000000000010001000101AB
:10015000010101010101010101010101010101018F
:100160000101010101010101010101000000010182
:10017000000000000000000000000000000000007F
:10018000000000000000000000000001010101006B
:1001900000000000000000002A2B280000000000E2
:1001A0000000000000000000000000290000000026
:1001B0002C1E3420212224342627252E362D373894
:1001C000271E1F202122232425263333362E37389D
:1001D0001F0405060708090A0B0C0D0E0F1011125B
:1001E000131415161718191A1B1C1D2F3130232D27
:1001F000350405060708090A0B0C0D0E0F10111225
:10020000131415161718191A1B1C1D2F3130354CD5
:100210000A44454255473A20656E61626C65642E1A
:100220000A000A002530313662003A2000253032BB
:1002300058000A722F632030313233343536373864
:10024000394142434445460A000A002530325800ED
:10025000626F756E6365213A20000A0025303258BE
:1002600020006B6579626F6172645F7265706F7296
:10027000743A20000A0025303258006B6579626FAD
:100280006172645F7365745F6C65643A2000646FCB
:100290006E652E0A00626F6F746D6167696320730B
:1002A00063616E3A202E2E2E2000290A002575004B
:1002B0002F002575005D28002564002000256400BE
:1002C000200025640020002564007C002530325881
:1002D000006D6F7573656B6579205B62746E7C78F9
:1002E0002079207620685D287265702F61636C2903
:1002F0003A205B003F000A6D6F7573653A206F66A8
:10030000660A000A6D6F7573653A206F6E0A000AFF
:100310006B6579626F6172643A206F66660A000AE3
:100320006B6579626F6172643A206F6E0A000A6DC4
:1003300061747269783A206F66660A000A6D6174AA
:100340007269783A206F6E0A000A64656275673ACE
:10035000206F66660A000A64656275673A206F6EF0
:100360000A000A0A4A756D70696E6720746F206210
:100370006F6F746C6F616465722E2E2E2000433E89
:1003800020006565636F6E6669673A0A000A00259A
:1003900075002E6E6B726F3A20000A002575002ED4
:1003A000737761705F6261636B736C6173685F62C6
:1003B00061636B73706163653A20000A0025750004
:1003C0002E737761705F67726176655F6573633AFC
:1003D00020000A002575002E6E6F5F6775693A2050
:1003E000000A002575002E737761705F72616C746E
:1003F0005F726775693A20000A002575002E7377D1
:1004000061705F6C616C745F6C6775693A20000A9B
:10041000002575002E636170736C6F636B5F746F82
:100420005F636F6E74726F6C3A20000A002575006E
:100430002E737761705F636F6E74726F6C5F636150
:1004400070736C6F636B3A20000A002530325800DD
:100450006B65796D61705F636F6E6669672E72613F
:10046000773A20000A002575002E6D6F7573653A86
:1004700020000A002575002E6B6579626F61726439
:100480003A20000A002575002E6D61747269783A71
:1004900020000A002575002E656E61626C653A20A9
:1004A000000A00253032580064656275675F636F2B
:1004B0006E6669672E7261773A20000A0025750022
:1004C00064656661756C745F6C617965723A200071
:1004D0000A092D204D61676963202D0A443A0944B9
:1004E00065627567204D65737361676520546F673A
:1004F000676C650A583A094D6174726978204465E1
:10050000627567204D6F646520546F67676C652066
:100510002D2053686F77206B6579707265737365F2
:100520007320696E206D61747269782067726964E6
:100530000A4B3A094B6579626F61726420446562C7
:10054000756720546F67676C65202D2053686F773F
:10055000206B65797072657373207265706F727449
:100560000A4D3A094465627567204D6F75736520C1
:10057000546F67676C650A563A0956657273696FFE
:100580006E0A533A095374617475730A433A094108
:100590006374697661746520436F6E736F6C652058
:1005A0004D6F64650A46312D4631303A09537769FB
:1005B00074636820746F204C6179657220302D3926
:1005C0002028463130203D204C30290A302D393A40
:1005D0000953776974636820746F204C6179657280
:1005E00020302D390A4553433A09537769746368BB
:1005F00020746F204C6179657220302028616C7402
:1006000065726E617465206B65792031290A4752E5
:100610004156453A0953776974636820746F204CDA
:100620006179657220302028616C7465726E617426
:1006300065206B65792032290A50415553453A09A6
:100640004A756D7020746F20426F6F746C6F6164B7
:10065000657220285265736574290A453A095072FB
:10066000696E7420454550524F4D2053657474692E
:100670006E67730A000A092D20436F6E736F6C65F5
:10068000202D0A4553432F713A09717569740A6D1B
:100690003A096D6F7573656B65790A004743433A94
:1006A00020342E332E33204156522D4C4942433AAA
:1006B00020312E362E37204156525F415243483A60
:1006C00020617672350A004F5054494F4E533A20FC
:1006D0004C55464120424F4F544D41474943204DD0
:1006E0004F5553454B45592045585452414B455958
:1006F00020434F4E534F4C4520434F4D4D414E44A8
:10070000203531320A004255494C443A20323031CA
:10071000362D30382D30342D32323A33383A3332A8
:10072000202832323A33383A343420417567202059
:10073000342032303136290A005649443A20307884
:10074000464545442850616E6320496E7465726168
:10075000637469766529205049443A2030783630F0
:10076000363028536562726967687429205645528D
:100770003A203078303030310A00444553433A2033
:100780004120637573746F6D206B6579626F617260
:10079000640A000A092D2056657273696F6E202D58
:1007A0000A0074696D65725F72656164333228296D
:1007B0003A202530346C580A006B6579626F61729B
:1007C000645F69646C653A2025580A006B6579623C
:1007D0006F6172645F70726F746F636F6C3A202523
:1007E000580A00686F73745F6B6579626F61726439
:1007F0005F6C65647328293A2025580A000A092D80
:1008000020537461747573202D0A004C25640A000E
:10081000433E20003F004D3E200077686572652012
:1008200064656C74613A20637572736F723D256400
:100830002C20776865656C3D25640A5365652068E2
:100840007474703A2F2F656E2E77696B69706564CA
:1008500069612E6F72672F77696B692F4D6F7573A2
:10086000655F6B6579730A000A092D204D6F7573FA
:10087000656B6579202D0A4553432F713A097175CF
:1008800069740A313A0964656C6179282A31306DDE
:1008900073290A323A09696E74657276616C286D43
:1008A00073290A333A096D61785F73706565640A6C
:1008B000343A0974696D655F746F5F6D61780A35EC
:1008C0003A09776865656C5F6D61785F737065651F
:1008D000640A363A09776865656C5F74696D655FAF
:1008E000746F5F6D61780A0A703A097072696E748C
:1008F0002076616C7565730A643A097365742064C7
:10090000656661756C74730A75703A092B310A64F7
:100910006F776E3A092D310A706775703A092B317D
:10092000300A7067646F776E3A092D31300A0A73A6
:1009300070656564203D2064656C7461202A206DBB
:1009400061785F7370656564202A20287265706520
:100950006174202F2074696D655F746F5F6D6178BD
:10096000290A004D3E004D25643E20003F0073657E
:10097000742064656661756C740A00433E20000A49
:1009800000257500363A20776865656C5F74696D7F
:10099000655F746F5F6D61783A20000A002575000D
:1009A000353A20776865656C5F6D61785F73706557
:1009B00065643A20000A00257500343A2074696D98
:1009C000655F746F5F6D61783A20000A00257500DD
:1009D000333A206D61785F73706565643A20000A70
:1009E00000257500323A20696E74657276616C2854
:1009F0006D73293A20000A00257500313A2064659C
:100A00006C6179282A31306D73293A20000A092D4A
:100A10002056616C756573202D0A006D6B5F7768D9
:100A200065656C5F74696D655F746F5F6D6178207B
:100A30003D2025640A006D6B5F776865656C5F6DAE
:100A400061785F7370656564203D2025640A006DE0
:100A50006B5F74696D655F746F5F6D6178203D20B9
:100A600025640A006D6B5F6D61785F737065656406
:100A7000203D2025640A006D6B5F696E7465727697
:100A8000616C203D2025640A006D6B5F64656C61BC
:100A900079203D2025640A006D6B5F776865656C81
:100AA0005F74696D655F746F5F6D6178203D2025AF
:100AB000640A006D6B5F776865656C5F6D61785F78
:100AC0007370656564203D2025640A006D6B5F745A
:100AD000696D655F746F5F6D6178203D2025640AE4
:100AE000006D6B5F6D61785F7370656564203D209C
:100AF00025640A006D6B5F696E74657276616C20A7
:100B00003D2025640A006D6B5F64656C6179203D52
:100B10002025640A005B735D004B6579626F61722A
:100B2000642073746172742E0A005B575D005B531E
:100B30005D005B525D005B445D005B435D00050151
:100B40000906A101050719E029E715002501950807
:100B500075018102950175088101050819012905B2
:100B6000950575019102950175039101050719001D
:100B700029FF150026FF00950675088100C00501B4
:100B80000902A1010901A1000509190129051500A2
:100B90002501950575018102950175038101050106
:100BA000093009311581257F9502750881060938BC
:100BB0001581257F950175088106050C0A380215F7
:100BC00081257F950175088106C0C005010980A1B6
:100BD00001850216810026B7001A81002AB7007528
:100BE0001095018100C0050C0901A10185031601C2
:100BF00000269C021A01002A9C02751095018100B2
:100C0000C00631FF0974A1010975150026FF009582
:100C100020750881020976150026FF0095207508C9
:100C20009102C01201100100000008EDFE60600199
:100C3000000102000109027400040100A0FA090485
:100C400000000103010100092111010001224000FF
:100C50000705810308000A090401000103010200DD
:100C6000092111010001224D000705820308000A35
:100C70000904020001030000000921110100012202
:100C800036000705830308000A0904030002030075
:100C90000000092111010001222200070584032020
:100CA0000001070504032000010403090422035086
:100CB0000061006E006300200049006E0074006552
:100CC0000072006100630074006900760065000036
:100CD000001203530065006200720069006700683B
:100CE00000740000000011241FBECFEFDAE0DEBF69
:100CF000CDBF04B603FE24C08091CF019091D001F6
:100D0000A091D101B091D2018750904BA740B04B38
:100D1000B9F41092CF011092D0011092D10110922B
:100D2000D20114BE84B7877F84BF88E10FB6F894E0
:100D300080936000109260000FBEE0E0FFE3099531
:100D400011E0A0E0B1E0EEE5FFE502C005900D92F4
:100D5000A432B107D9F711E0A4E2B1E001C01D92BD
:100D6000AF3CB107E1F70E94BC270C94AD2F0C9467
:100D70000000FF93EF93E0912401F091250130975B
:100D800009F00995EF91FF910895FC01859180305C
:100D900011F0EFDFFBCF0895FF27E0E230E247FFDD
:100DA0000CC0419597FF09C0EDE260957095809564
:100DB0009095611D711D811D911D27FF02C0219518
:100DC00030E350E2AA27660F771F881F991FAA1FDA
:100DD000A41710F0A41B63955A95A9F7AA3008F040
:100DE000A95FA05DAF93F39561157105810591052C
:100DF00041F7ED3211F4EF93F395F21718F43F93A6
:100E0000F395FBCF8F91B5DFFA95E1F70895E9915E
:100E1000F9918591803021F0853219F0AADFF9CF60
:100E2000089520E0E89455915532C1F3503311F400
:100E3000689455915A3348F4505390F3220F022E80
:100E4000220F220F200D250FF4CF0EF4219589914A
:100E50009991533619F3533729F1533559F1BC01A0
:100E600088279927E8945C3621F4899199916894B0
:100E70005591543639F446EF7EF077FF0DC08FEF71
:100E80009FEF0AC055374AE039F0583540E121F06C
:100E9000523642E009F00895FF93EF937DDFEF9122
:100EA000FF91B7CFFF93EF93FC0181918030B9F3AD
:100EB00060DFFBCFFF93EF9368DFF1CFDF93CF933A
:100EC000CDB7DEB72596A3DFCF91DF91089580E0FF
:100ED00090E0089581E0089581E008950E946C07F4
:100EE000089508950E94710708950E947207089559
:100EF0000E94100B08950E940C0B08950E94920E00
:100F000084EC99E020E931E0F9013197F1F701979C
:100F1000D9F70E947A1A08950F931F93CF93DF9306
:100F2000EC0118810981812F902F0E94E016612F1A
:100F3000702F0E94A2088C01BE010E946E078823B8
:100F400009F4F9C0C801BE010E94BE0A882309F451
:100F5000F2C080E70431180768F490E702301907FF
:100F600040F580E70030180779F00150104709F08C
:100F7000D9C011C080E70B33180709F4A9C00C537E
:100F8000104709F0CFC0B7C08A81882309F4D3C0C5
:100F90000E947E07D0C08A81882309F4CCC080E1FA
:100FA00092E00E94C5068091A20181608093A20117
:100FB000C2C08A81882309F4BAC00E9467198823B5
:100FC00011F40E9472190E9458198093C001109266
:100FD000C10190E70230190711F4816072C090E7F7
:100FE0000330190711F482606CC090E704301907D0
:100FF00011F4846066C090E70530190711F4886029
:1010000060C090E70630190711F480615AC090E77C
:101010000730190711F4806254C090E708301907AF
:1010200011F480644EC090E70930190711F480680C
:1010300048C090E70A30190711F48C6042C080E77D
:101040000B30180721F48091C0018E7F3AC090E7E1
:101050000C30190721F48091C0018D7F32C080E7E8
:101060000D30180721F48091C0018B7F2AC090E7D2
:101070000E30190721F48091C001877F22C080E7DC
:101080000F30180721F48091C0018F7E1AC090E7BD
:101090000031190721F48091C0018F7D12C080E7D3
:1010A0000131180721F48091C0018F7B0AC00251E1
:1010B000104721F48091C0018F7703C08091C00157
:1010C000837F8093C0018091C0010E94461933C084
:1010D0008A81882321F01092260182E012C080913B
:1010E0002601882331F486E20E94F80E86E20E94EF
:1010F000A50E82E014C08A81882331F01092270166
:1011000080E20E949E0E17C080912701882331F44F
:1011100087E20E94F80E87E20E94A50E80E20E94FC
:10112000970E09C081E08093260180932701CE01AC
:101130000E946A0701C080E0DF91CF911F910F915B
:1011400008950895E62FF0E0EE0FFF1F98E1799FD4
:1011500090011124E20FF31F90E6899FC001112432
:10116000E80FF91FE455FF4F25913491C901089507
:101170000E94A2080E94330AAC0120E4803092074A
:10118000C0F580E34030580708F007C1403E5105E4
:10119000E8F4403C510508F057C0483A510588F43E
:1011A000453A510508F058C04130510509F4E7C0EF
:1011B0004130510508F453C14430510508F44FC182
:1011C00050C14D3B510508F04AC155C04F3F510534
:1011D00009F048F4403F510508F0CFC0483E5105A2
:1011E00008F03DC13EC120E24030520708F4CAC0B9
:1011F000CBC083E54030580780F422E540305207E9
:1012000008F0F7C081E54030580708F0ECC020E551
:101210004030520708F0C7C0C3C085E540305807CA
:1012200030F424E54030520708F009C1FBC086E5E0
:101230004030580708F409C1CA01805090468050D8
:10124000904108F00CC108C1FA01EE0FFF1FE457EE
:10125000F0404591549105C1453A510519F481E892
:1012600090E489C0463A510519F083E890E483C0C0
:1012700082E890E480C0483A510519F482EE94E483
:101280007AC0493A510519F489EE94E474C04A3A97
:10129000510519F48AEE94E46EC04B3A510519F4E5
:1012A00085EB94E468C04C3A510519F486EB94E45C
:1012B00062C04B3B510519F483EB94E45CC04C3B9A
:1012C000510519F484EB94E456C04D3A510519F4D4
:1012D00087EB94E450C0403B510519F48CEC94E446
:1012E0004AC04E3A510519F48DEC94E444C04F3A8B
:1012F000510519F483E895E43EC0413B510519F4CA
:101300008AE895E438C0423B510519F482E995E436
:1013100032C0433B510519F484E995E42CC0443BA9
:10132000510519F481E296E426C0453B510519F4B4
:1013300083E296E420C0463B510519F484E296E42A
:101340001AC0473B510519F485E296E414C0483BA6
:10135000510519F486E296E40EC0493B510519F493
:1013600087E296E408C04A3B510519F080E094E416
:1013700002C08AE296E4AC0174C0506572C041E0DC
:1013800050E06FC05F716DC0FA01FF70EE0FFF1F7C
:10139000E45FFE4F4591549164C05070506C61C041
:1013A0005F70506A5EC0342F3F70E4E056954795F9
:1013B000EA95E1F7942F937080E0232F26952695E8
:1013C000422F50E075E0440F551F7A95E1F7482B06
:1013D000592B5C68337081E090E002C0880F991F40
:1013E0003A95E2F71AC0942F80E0AC01416F506A41
:1013F00038C0242F842F86958695482F50E065E0CD
:10140000440F551F6A95E1F75C68237081E090E016
:1014100002C0880F991F2A95E2F78F719070482BB0
:10142000592B1FC0242F842F86958695482F50E076
:1014300035E0440F551F3A95E1F75A68E6CF942FEF
:1014400080E0AC01446F506A0CC0842F90E08F7133
:101450009070582F442701C05F70506202C040E076
:1014600050E0CA0108959C018238910591F18338BA
:101470009105C8F48133910509F46AC0823391055E
:1014800048F48932910509F45CC08A32910509F06B
:1014900072C065C08533910509F44CC0893391054C
:1014A00009F069C016C0833E910551F1843E910553
:1014B00040F4803E9105A1F0823E910509F05BC0A9
:1014C00016C0863E910519F1873E910509F053C07B
:1014D00027C08091C00180FD49C081FD47C04BC03D
:1014E0008091C00180FF47C029E330E044C0809173
:1014F000C00182FF40C084FD3CC023EE30E03BC011
:101500008091C00182FF13C022EE30E034C0809190
:10151000C00183FF30C084FD2CC027EE30E02BC01B
:101520008091C00183FF03C026EE30E024C084FF19
:1015300022C01FC08091C00185FF1DC029E230E09C
:101540001AC08091C00185FF16C025E330E013C0AA
:101550008091C00186FF0FC02AE230E00CC080916C
:10156000C00186FF08C021E330E005C020EE30E076
:1015700002C020E030E0C90108950895CF93DF93C1
:10158000EC01FB018281882309F441C0809128018C
:10159000882329F5C451D047D1F50E94BD0A81E0C6
:1015A000809328010E940F1A90932A0180932901A9
:1015B0001092350110922C0110922B0110922E01E5
:1015C00010922D011092300110922F0110923201D1
:1015D00010923101109234011092330116C08091A3
:1015E000290190912A010E942A1A883C910578F4D9
:1015F00080913501E82FF0E0EE0FFF1FE55DFE4F13
:10160000D183C0838F5F8093350180E001C081E08A
:10161000DF91CF91089508950E940B0B08950895CE
:101620000E940F0B0895E82FF0E0EE0FFF1FEA5C19
:10163000FE4F808191810895A4E1B1E041E050E046
:101640008D9190E0FC0124E0F595E7952A95E1F76E
:1016500031A18F709070BA0102C0660F771F8A9512
:10166000E2F7262F2095322331A322A1262B22A395
:1016700071E0A831B70721F7089585B7806885BF65
:1016800085B7806885BF0E941C0BA8E1B1E041E0EE
:1016900050E08D9190E0FC0134E0F595E7953A95A6
:1016A000E1F731A18F709070BA0102C0660F771F09
:1016B0008A95E2F7262F2095322331A322A1262BEB
:1016C00022A371E0A432B70721F780E090E0FC018B
:1016D000EA5CFE4F11821082FC01E25CFE4F118237
:1016E000108202968830910591F70E947B07089539
:1016F000AF92BF92CF92DF92EF92FF920F931F9320
:10170000CF93DF9304E111E0CEE3D1E031E0E32EAB
:10171000F12C20EAA22E95E0B92E8BE4C82E82E0AF
:10172000D82ED8018C9190E0FC01B4E0F595E795B6
:10173000BA95E1F721A18F709070A70102C0440F04
:10174000551F8A95E2F7CA01242B21A322A1809577
:10175000282322A38A2D8A95F1F740E050E060E02B
:1017600070E0FA01E85EFE4F208130E0F901A4E06C
:10177000F595E795AA95E1F780A190E02F7030707C
:1017800002C0959587952A95E2F780FF03C080E017
:1017900090E007C0C701042E02C0880F991F0A9469
:1017A000E2F7682B792B4F5F5F4F4C305105C9F63C
:1017B000888199818617970789F179836883809159
:1017C0000001882349F18091A20180FF04C080E5D7
:1017D00092E00E94C5068091A20180FF15C000D052
:1017E00000D0EDB7FEB73196ADB7BEB71296DC921A
:1017F000CE92119780910001828313820E945E072E
:101800000F900F900F900F908091A20180FF04C065
:1018100089E492E00E94C506B09200010E941C0B70
:101820000F5F1F4F2296B1E008311B0709F079CFF7
:1018300080910001882351F1815080930001882319
:1018400029F080EA9FE00197F1F720C080913E01E6
:1018500090913F0190933701809336018091400130
:101860009091410190933901809338018091420118
:101870009091430190933B0180933A018091440100
:101880009091450190933D0180933C010E9478071F
:1018900081E0DF91CF911F910F91FF90EF90DF904A
:1018A000CF90BF90AF900895CF92DF92EF92FF92CA
:1018B0000F931F93CF93DF9382E392E00E94C506BC
:1018C00006E311E0C0E0D0E05DE2C52E52E0D52E87
:1018D00044E2E42E42E0F42E00D000D0EDB7FEB793
:1018E000D282C182D483C3830E945E070F900F907F
:1018F0000F900F908AE292E00E94C506F801819154
:1019000091918F010E94331900D000D0EDB7FEB73E
:10191000F282E182948383830E945E070F900F908E
:101920000F900F9082E292E00E94C5062196C4308B
:10193000D10591F6DF91CF911F910F91FF90EF901C
:10194000DF90CF90089590934B0180934A010895C2
:10195000E0914A01F0914B01309711F480E0089535
:101960000190F081E02D09950895E0914A01F091F0
:101970004B01309721F00480F581E02D0995089501
:101980009C0180914801909149012817390779F00D
:101990003093490120934801E0914A01F0914B01B5
:1019A000309729F00680F781E02DC9010995089547
:1019B0009C0180914601909147012817390779F0E1
:1019C0003093470120934601E0914A01F0914B0189
:1019D000309729F00084F185E02DC901099508951B
:1019E000EF92FF920F931F93CF93DF93182F092F3E
:1019F000E0914A01F0914B013097D9F10280F381D7
:101A0000E02D09958091A20182FF33C080FF04C0C0
:101A100082E692E00E94C506812F902F9C01E90189
:101A200010E08CE5E82E82E0F82E8091A20180FF84
:101A300014C000D000D0EDB7FEB73196ADB7BEB739
:101A40001296FC92EE9211978881828313820E94F3
:101A50005E070F900F900F900F901F5F2196183028
:101A600021F78091A20180FF04C08AE592E00E94E4
:101A7000C506DF91CF911F910F91FF90EF900895D0
:101A800008950E94400D08951F93182F8091A20180
:101A900082FF27C080FF04C08BE792E00E94C5064A
:101AA0008091A20180FF15C000D000D0EDB7FEB735
:101AB000319686E792E0ADB7BEB712969C938E93AF
:101AC0001197128313820E945E070F900F900F9060
:101AD0000F908091A20180FF04C084E792E00E94F1
:101AE000C506812F0E9475071F9108952F923F927E
:101AF0005F926F927F928F929F92AF92BF92CF929E
:101B0000DF92EF92FF920F931F93DF93CF93CDB7A6
:101B1000DEB72A970FB6F894DEBF0FBECDBF0E9486
:101B2000780B2DE4822E21E0922EAA24BB2491E092
:101B3000292E312C5A2C8A2D0E94130B6C01F40192
:101B4000E080F180E826F926E114F104E1F18091CA
:101B5000A20181FF02C00E94540C00E010E031019C
:101B6000002E02C0660C771C0A94E2F7C3018E2196
:101B70009F21892B19F10E940F1A9C0109835A8217
:101B80001B82C620D720CD2811F081E08B83C901AC
:101B90008160782F9D838C8349815A816B818D81EF
:101BA0000E946912F501EE0FFF1FE35BFE4F80817B
:101BB0009181862597259183808321C00F5F1F4FD8
:101BC0000C30110561F60894A11CB11C82E090E074
:101BD000880E991E94E0A916B10409F0ABCF0E94BB
:101BE0000F1A2FEF2E832F8318868160782F9A8704
:101BF00089874FEF5FEF60E08A850E9469120E943B
:101C00007F1E10914C010E94A80C181731F00E9401
:101C1000A80C80934C010E94440D2A960FB6F894AC
:101C2000DEBF0FBECDBFCF91DF911F910F91FF900F
:101C3000EF90DF90CF90BF90AF909F908F907F906C
:101C40006F905F903F902F9008950E94061A0E9417
:101C50003D0B0E94E61A0895DF93CF9300D000D089
:101C60000F92CDB7DEB70F900F900F900F900F909F
:101C7000CF91DF910895DF93CF9300D000D000D0B3
:101C8000CDB7DEB726960FB6F894DEBF0FBECDBF38
:101C9000CF91DF9108950E942717482F892F8295B1
:101CA0008F70282F30E02C3031054CF42A3031056C
:101CB0006CF42250304022303105E8F407C02C305B
:101CC000310579F02F303105B1F40BC0403F39F0C8
:101CD000413F18F4403E78F402C0443F61F481E093
:101CE00008959F70892F90E023E0969587952A9517
:101CF000E1F78170089580E008950E9490180E9495
:101D0000A0180E9465180E94B8180E94A31D0E9486
:101D1000AF1D80E090E00E94C00C80E090E00E9447
:101D2000D80C08950E9480180E947D0E0895882383
:101D300021F00E9479180E94B8180895882321F094
:101D40000E9473180E94B8180895282F882309F458
:101D50004EC0823859F40E94A80C81FF48C089E324
:101D60000E9434180E94B81889E30CC0833869F4C3
:101D70000E94A80C80FF3BC083E50E9434180E949B
:101D8000B81883E50E9452181FC0843859F40E9485
:101D9000A80C82FF2CC087E40E9434180E94B81857
:101DA00087E4F0CF8450813A10F4822FEBCF822F5A
:101DB000805E883060F4277081E090E001C0880F79
:101DC0002A95EAF70E9479180E94B8180895822F80
:101DD000855A833028F480E090E00E94C00C08957A
:101DE000285A253120F480E090E00E94D80C089514
:101DF0001F93182F882309F4D0C0823859F40E9409
:101E0000A80C81FDCAC089E30E9434180E94B8184A
:101E100089E30CC0833879F40E94A80C80FDBDC012
:101E200083E50E9434180E94B81883E50E94521876
:101E30000E94B818B2C0843859F40E94A80C82FDE0
:101E4000ACC087E40E9434180E94B81887E4EECF33
:101E50008450813A50F4812F0E948124882309F014
:101E60009CC0812F0E943418E3CF812F805E883080
:101E700050F4177081E090E001C0880F1A95EAF7DE
:101E80000E947318D5CF812F855A8330A0F4153A5C
:101E900019F481E890E00CC0163A19F482E890E059
:101EA00007C0173A19F080E090E002C083E890E0A4
:101EB0000E94C00C72C0812F885A853108F06DC015
:101EC000183A19F482EE90E066C0193A19F489EED6
:101ED00090E061C01A3A19F48AEE90E05CC01B3AB7
:101EE00019F485EB90E057C01C3A19F486EB90E0AA
:101EF00052C01B3B19F483EB90E04DC01C3B19F41E
:101F000084EB90E048C01D3A19F487EB90E043C0A1
:101F1000103B19F48CEC90E03EC01E3A19F48DECA5
:101F200090E039C01F3A19F483E891E034C0113BC6
:101F300019F48AE891E02FC0123B19F482E991E08C
:101F40002AC0133B19F484E991E025C0143B19F42D
:101F500081E292E020C0153B19F483E292E01BC0BD
:101F6000163B19F484E292E016C0173B19F485E29F
:101F700092E011C0183B19F486E292E00CC0193BC4
:101F800019F487E292E007C01A3B19F080E090E074
:101F900002C08AE292E00E94D80C1F9108950F932C
:101FA0001F93CF93DF93EC01298138818B819C8132
:101FB000892BD9F02F3FA1F43F3F91F416C06881DF
:101FC00079818A810E943217182F092F0E94DF160B
:101FD0000E94DE16CE01612F702F0E94FA0F05C0FD
:101FE000CE010E948C07882351F7DF91CF911F917A
:101FF0000F9108959F92AF92BF92CF92DF92EF928E
:10200000FF920F931F93DF93CF9300D000D00F92D6
:10201000CDB7DEB75C016B01DE011196FC0185E0F6
:1020200001900D928150E1F70B81F501F580F2945A
:102030004FE0F422002311F00E9490180E942E1805
:10204000882379F0002369F08C2D805E883048F079
:1020500082E00E94E9180E942E18992493949826F1
:1020600001C099248D2D82958F7090E08530910567
:1020700009F4B1C08630910554F4843091050CF018
:102080008BC02D2D207F02970CF045C013C08C30E3
:10209000910544F48A3091050CF06EC1089709F05F
:1020A000F4C1A5C08C30910509F4DEC10F9709F089
:1020B000ECC1E4C18D2D8F70222311F4182F03C0C1
:1020C000182F1295107F002389F0112309F4B8C14D
:1020D0008C2D805E883020F4812F0E94731803C0FD
:1020E000812F0E9483180E94B818AAC18C2D0E94CB
:1020F000A50E112309F4C9C1F0E2CF0E27E02C157B
:1021000020F0812F0E94791803C0812F0E94891826
:102110000E94B818BAC18D2D8F70203211F4182F7B
:1021200003C0182F1295107FCC2021F081E0C81633
:1021300009F514C0002349F0FF2031F1E1E0FE165B
:1021400019F5812F0E94A318A0C1FF2021F0F1E012
:10215000FF1609F49AC10E94A61830C1002329F085
:1021600025E02F1508F491C10FC084E08F1508F405
:102170008CC124C1002361F0FF2031F0F50185817D
:1021800080FF5EC18F708583812F0E949E0E7DC16E
:10219000FF2009F413C15FC18D2D8695869583704C
:1021A00090E0009721F0019709F06FC10AC0002369
:1021B00019F0C601937002C080E090E00E94C00C4C
:1021C00064C1002319F0C601937002C080E090E062
:1021D0000E94D80C5AC1002321F08C2D0E94B11C02
:1021E00003C08C2D0E941B1D0E94AF1D4EC18D2D62
:1021F000837009F05EC0002309F047C12C2D2295A1
:1022000026952770220F220F8C2D8F70E82EFF2429
:1022100000E010E0022E04C0EE0CFF1C001F111F96
:102220000A94D2F7C4FC05C060E070E080E090E062
:102230000FC06FE070E080E090E004C0660F771F91
:10224000881F991F2A95D2F7609570958095909573
:10225000D694D694F3E0DF224D2D50E04130510565
:10226000A9F0423051051CF4452B49F00EC1423013
:10227000510589F04330510509F007C113C06E299B
:102280007F29802B912B0E94FF17FFC06E297F2989
:10229000802B912B0BC06E297F29802B912B0E94C4
:1022A000EE17F3C00E94FF17C801B7010E94101873
:1022B000ECC090E0002311F496958795817009F4A5
:1022C000E4C02C2D229526952770220F220F8C2DED
:1022D0008F70E82EFF2400E010E0022E04C0EE0C08
:1022E000FF1C001F111F0A94D2F7C4FC05C060E058
:1022F00070E080E090E00FC06FE070E080E090E080
:1023000004C0660F771F881F991F2A95D2F7609522
:10231000709580959095D694D69423E0D2224D2D39
:1023200050E041305105A9F0423051051CF4452BD5
:1023300049F0ABC04230510589F04330510509F0F6
:10234000A4C013C06E297F29802B912B0E945217A5
:102350009CC06E297F29802B912B0BC06E297F2971
:10236000802B912B0E94411790C00E945217C801E8
:10237000B7010E94631789C081EFC81699F18C15C7
:1023800040F0E0EECE1608F457C0FFEEFC1558F40E
:1023900019C023EFC21681F1C21648F184EFC816A6
:1023A00009F04AC033C01C2D1F708D2D8F71002382
:1023B00019F00E94B017E8CE0E949017812F0E945A
:1023C000970E63C0002329F0E4E0EF1508F45DC028
:1023D00004C0F5E0FF1508F458C08D2D8F710E94E0
:1023E000741753C08D2D8F710023D9F12FC08D2DFF
:1023F0008F71002359F135C0002329F08D2D8F7185
:102400000E94CC1742C00E94DC173FC0002351F04D
:102410001D2D1F71812F0E94B017812F63E00E9434
:10242000021933C081E00E94E91821E02F1568F5F8
:1024300082E00E94E91829C0002359F0FF2021F012
:102440008C2D0E94F80E21C08D2D8F710E94B01727
:102450001CC0FF2021F08C2D0E94A50E16C08D2DD2
:102460008F710E94901711C08FE0D822C5016C2D8A
:102470004D2D0E9467070E94651607C0EFE0DE221F
:10248000C5016C2D4D2D0E94A108992089F00E9454
:102490002A1880FD0DC0F50112820E9424180E94A6
:1024A000B017C5010E94CF0F0E9424180E949017F8
:1024B0000F900F900F900F900F90CF91DF911F9181
:1024C0000F91FF90EF90DF90CF90BF90AF909F90D3
:1024D0000895DF93CF93CDB7DEB72B970FB6F8945F
:1024E000DEBF0FBECDBF342F4F83252F588769879E
:1024F0007A878B87472F582FFE01319686E0DF01C0
:102500001D928A95E9F76B8339832A834C835D8317
:10251000432F522F8D819E810E94A6152B960FB6B8
:10252000F894DEBF0FBECDBFCF91DF9108950F931A
:102530001F9300915C0115C010E0F801EE0FFF1F22
:10254000E00FF11FEE0FFF1FE35AFE4F4081518154
:1025500062817381848195810E943B0E0F5F1F4FC2
:10256000077080915B01081739F71F910F9108954B
:102570004091550150915601609157017091580159
:102580008091590190915A010E943B0E08950F933A
:102590001F93CF93DF9380915A0182958F7009F03A
:1025A0006DC080915701882309F468C060915C0177
:1025B00000915B01409158015091590110915601D1
:1025C00070915501EA01C095D09555C0411551054E
:1025D00009F44FC01F3F49F480E090E07F3F11F4C1
:1025E00081E090E0882309F044C0262F30E0F90113
:1025F000EE0FFF1FE20FF31FDF01AA0FBB1FA35A4D
:10260000BE4F11968C911197181799F58C917817E8
:1026100081F5EE0FFF1FE15AFE4F8081882349F5B7
:1026200013968D919C9114978417950718F0841B2D
:10263000950B02C08C0F9D1F883C9105D0F48091B2
:102640005A018F70806180935A01F901EE0FFF1FCC
:10265000E20FF31FEE0FFF1FEE59FE4F80818F70C8
:102660008061808385E591E00E94CF0F0E949712E0
:1026700005C06F5F6770601709F0A8CFDF91CF9139
:102680001F910F910895DF92EF92FF920F931F9386
:10269000DF93CF93CDB7DEB76B970FB6F894DEBF5D
:1026A0000FBECDBF8C01DC011296DC9012974C91CD
:1026B00011965C9111971396ED90FC9014972091D0
:1026C00058013091590160915601709155012115C1
:1026D000310509F4DBC16F3F09F003C27F3F09F008
:1026E00000C2D4C1E216F30640F0C701821B930B6F
:1026F000883C910508F0EEC008C0209530952E0D5D
:102700003F1D283C310508F0E5C080915A01807FCB
:1027100009F095C06F3F09F0EAC17F3F09F0E7C1BA
:1027200015C0741799F4DD2089F480915A018F70D7
:10273000806180935A010E94B81285E591E00E9461
:10274000CF0F80915A01F8018583BCC1FD82EC82D4
:102750005A834983DB82DE011696FE01319685E0BD
:1027600001900D928150E1F76885DE011B96FE0114
:10277000369685E001900D928150E1F72C853B85DE
:102780008E859F85892B09F451C02F3F09F0B3C175
:102790003F3F09F0B0C14AC0FD82EC825A834983B1
:1027A000DB82DE011B96FE01319685E001900D92E1
:1027B0008150E1F7FC847B856D8580915C0190916F
:1027C0005B011FC0282F30E0F901EE0FFF1FE20F61
:1027D000F31FDF01AA0FBB1FA35ABE4F11968C91A6
:1027E0001197F81651F48C91781739F4EE0FFF1FFA
:1027F000E15AFE4F80816817C9F42F5F3F4F822F47
:1028000087708917F9F68DC19F7059F0442349F4F8
:1028100059C19F7031F0D80115968C91807F09F4D1
:1028200051C1405E483008F44DC148C1DD2009F473
:1028300049C180915A01816080935A0143C16F3F21
:1028400009F05DC17F3F09F05AC114C0741791F4BB
:10285000DD2081F480915A01F8018583C8010E942E
:10286000CF0FA5E5B1E0F80186E001900D9281500F
:10287000E1F720C15A83498389819A810E944B0ED6
:10288000882309F41BC1DD2009F418C130915A01D5
:10289000832F82958F7090E002979CF09091560163
:1028A00020915501FE01709686E0DF011D928A9508
:1028B000E9F7998B288BFC8AEB8A3D8BCF010E942C
:1028C000CF0FA5E5B1E0F80186E001900D928150AF
:1028D000E1F7EEC080915A01807FA9F47E2DFD8240
:1028E000EC825A834983DB826D2D8D810E942C0EF0
:1028F00005E511E0C8010E94CF0F86E0F8011192B2
:102900008A95E9F7C0C06F3F09F0FDC07F3F09F02D
:10291000FAC014C0741791F4DD2081F480915A013B
:10292000D80115968C93C8010E94CF0FE5E5F1E020
:1029300086E0DF011D928A95E9F7BEC05A8349837C
:1029400089819A810E944B0E882309F4B7C0DD204B
:1029500009F4B4C030915A01832F82958F7090E0B2
:1029600002979CF09091560120915501FE017696B8
:1029700086E0DF011D928A95E9F79F8B2E8BFA8EF8
:10298000E98E3B8FCF010E94CF0FA5E5B1E0F801A2
:1029900086E001900D928150E1F78AC06F3F09F007
:1029A000B6C07F3F09F0B3C071C0E216F30640F035
:1029B000C701821B930B883C910508F053C008C0E7
:1029C000209530952E0D3F1D283C310508F04AC05A
:1029D000DD2009F473C06F3F09F09FC07F3F09F00D
:1029E0009CC029C0741739F590915A0190FD1AC006
:1029F000892F82958F70B1F0F80195838F3031F077
:102A00008F5F8295807F9F70982B9583C8010E946D
:102A1000CF0FA5E5B1E0F80186E001900D9281505D
:102A2000E1F748C0A5E5B1E0F80186E001900D921C
:102A30008150E1F741C05A83498389819A810E947C
:102A40004B0E882349F0A5E5B1E0F80186E001903E
:102A50000D928150E1F72CC080915A0181608093E2
:102A60005A012CC07E2DFD82EC825A834983DB8281
:102A70006D2D8D810E942C0EE5E5F1E086E0DF01F1
:102A80001D928A95E9F70E94B8121CC0DD20B1F0B2
:102A90005A83498389819A810E944B0E882371F061
:102AA000A5E5B1E0F80186E001900D928150E1F7D3
:102AB0000E94C7120E94B81281E005C0C8010E949E
:102AC000CF0FFACF80E06B960FB6F894DEBF0FBE43
:102AD000CDBFCF91DF911F910F91FF90EF90DF90CD
:102AE000089580915701882309F458CFFBCD6517CD
:102AF00009F02CCE16CE613009F498CE4DCE651774
:102B000009F0B8CEA3CE651709F018CF03CF809196
:102B10005701882309F0BACF48CF651709F08BCF4A
:102B200061CF5A83498389819A810E942717482F50
:102B3000892F82958F70282F30E0223031050CF4D8
:102B400063CE243031050CF0B9CF63CE0F931F93C1
:102B5000DF93CF93CDB7DEB72C970FB6F894DEBFD7
:102B60000FBECDBF4F83588769877A878B879C8735
:102B70008E01095F1F4FC8010E9443138823D9F0BB
:102B800028853F818A859B85892B09F46BC02F3F5F
:102B900049F480E090E03F3F11F481E090E0882329
:102BA00009F060C04F81588569857A858B859C8541
:102BB0000E943B0E57C0DE011196F80186E001909D
:102BC0000D928150E1F7F981EA814C815D814115D7
:102BD000510509F447C0EF3F09F04CC0FF3F09F031
:102BE00049C040C0F983EA835D834C83F901EE0F4D
:102BF000FF1FE20FF31FEE0FFF1FE35AFE4FDE0130
:102C0000119686E00D9001928150E1F760935B018F
:102C10000E94971227C0919FC0011124835A9E4F92
:102C20000E944313882309F445C080915C0190E021
:102C3000FC01EE0FFF1FE80FF91FEE0FFF1FE35A15
:102C4000FE4F4081518162817381848195810E9410
:102C50003B0E80915C0190E00196877090708093AC
:102C60005C0101C016E090915C0180915B019817B6
:102C700091F620C080915B01282F30E02F5F3F4FFD
:102C8000B901677070702150304080915C0190E014
:102C90006817790709F0A6CF0E94920E10925B0187
:102CA00010925C01E5E5F1E086E0DF011D928A9576
:102CB000E9F7D8CF2C960FB6F894DEBF0FBECDBF84
:102CC000CF91DF911F910F910895CF92DF92EF92F4
:102CD000FF921F93CF93DF93EC01009709F466C036
:102CE00010E090EAC92E9FE0D92E81E0E82EF12C69
:102CF000FE0121969491943748F4943008F044C032
:102D0000913079F0923009F051C01BC0953709F429
:102D100037C0953750F1892F8458803708F046C066
:102D200037C0FE0121969491892F805E883060F52E
:102D300097708E2D01C0880F9A95EAF70E9493181C
:102D40000FC0FE0121969491892F805E883058F43F
:102D500097708E2D01C0880F9A95EAF70E949918F6
:102D60000E94B81819C0892F15C0FE01249104C013
:102D7000C6010197F1F721502223D1F721960CC00B
:102D8000FE012196149108C0892F0E94F80E04C0FC
:102D9000892F8F770E94A50E212F04C0C6010197AD
:102DA000F1F72150222309F4A3CFF8CFDF91CF917F
:102DB0001F91FF90EF90DF90CF90089508950895B0
:102DC000AF92BF92DF92EF92FF920F931F93CF9338
:102DD000DF935C01E0908D01F0908E0100918F01F6
:102DE000109190018091910190919201A091930195
:102DF000B0919401E82AF92A0A2B1B2BCFE1D0E0ED
:102E0000DC2ED801C7010C2E04C0B695A795979566
:102E100087950A94D2F781709070892B39F08C2FA6
:102E2000B5010E94B8088130910531F421978FEFE8
:102E3000CF3FD80729F7DD248D2DDF91CF911F914A
:102E40000F91FF90EF90DF90BF90AF9008950F9398
:102E50001F938C010E94E016B8010E94B8081F91D0
:102E60000F910895CB010E94271708956093910157
:102E70007093920180939301909394010E947D0E30
:102E800008959B01AC016091910170919201809134
:102E900093019091940162277327842795270E94BC
:102EA000361708959B01AC016091910170919201D8
:102EB000809193019091940162237323842395233D
:102EC0000E94361708959B01AC01609191017091A9
:102ED00092018091930190919401622B732B842B2A
:102EE000952B0E943617089521E030E040E050E035
:102EF00004C0220F331F441F551F8A95D2F78091BB
:102F0000910190919201A0919301B0919401282791
:102F100039274A275B27CA01B9010E94361708954D
:102F200021E030E040E050E004C0220F331F441F96
:102F3000551F8A95D2F720953095409550958091F0
:102F4000910190919201A0919301B0919401282355
:102F500039234A235B23CA01B9010E943617089519
:102F600021E030E040E050E004C0220F331F441F56
:102F7000551F8A95D2F78091910190919201A0916D
:102F80009301B0919401282B392B4A2B5B2BCA015A
:102F9000B9010E943617089521E030E040E050E08A
:102FA00004C0220F331F441F551F8A95D2F7CA0150
:102FB000B9010E943617089560E070E080E090E06B
:102FC0000E943617089560938D0170938E0180934F
:102FD0008F01909390010E947D0E08959B01AC019A
:102FE00060918D0170918E0180918F01909190017F
:102FF00062277327842795270E94E31708959B0172
:10300000AC0160918D0170918E0180918F01909142
:10301000900162237323842395230E94E31708956C
:103020009B01AC0160918D0170918E0180918F01A7
:1030300090919001622B732B842B952B0E94E317A8
:1030400008950E94E31708958091A10185958595C3
:10305000859508958091A101877008958091A101BF
:10306000877009F081E00895382FA0910101B09197
:103070000201FD0120E08FEF9281931791F08F3FC5
:1030800019F4992309F4822F2F5F31962630A1F786
:103090008F3F39F0992787FD9095A80FB91F129699
:1030A0003C930895982F20E030E0E0910101F091E9
:1030B0000201E20FF31F8281891709F412822F5F48
:1030C0003F4F2630310589F7089581E090E0E09187
:1030D0000101F0910201E80FF91F1082019688307A
:1030E0009105A9F7089590919D01982B90939D01CA
:1030F0000895809590919D01982390939D01089546
:1031000010929D0108959091A001982B9093A00199
:10311000089580959091A00198239093A00108951F
:103120001092A001089590919F01982B90939F0178
:103130000895809590919F01982390939F01089501
:1031400010929F01089580939E01089510929E0110
:103150000895E0910101F091020120E091E0818168
:1031600081112F5F9F5F31969830C9F7822F0895A4
:10317000E0910101F091020180919D018083E09135
:103180000101F091020180819091A001892B80833F
:10319000E0910101F0910201808190919F01892BC2
:1031A000808390919E01992369F0E0910101F09153
:1031B00002018081892B80830E94A918882311F045
:1031C0000E94A61880910101909102010E94F00CCA
:1031D00008952091A101482F409542234093A101D9
:1031E000842F877071F430E0842F992787FD9095A4
:1031F0002817390731F0842F8595859585950E948C
:1032000090170895982F990F990F990F962B9093D7
:10321000A1010E94B0170895909325018093240185
:103220000895282F22952F708295807F282B30E0DB
:10323000C9018C7C9070959587959595879523739A
:103240003070220F331F220F331F822B282F30E0C4
:10325000C9018A7A90709595879525753070220FEF
:10326000331F822B08950F931F93192F0E9411195A
:10327000082F812F0E941119502F40E0282F30E095
:10328000242B352BC9011F910F910895682F84E0DD
:1032900090E00E94852F0895682F83E090E00E94BF
:1032A000852F0895682F82E090E00E94852F089571
:1032B00084E090E00E94772F089583E090E00E94E0
:1032C000772F089582E090E00E94772F089580E0A4
:1032D00090E00E947F2F20E08D5E9E4F09F421E058
:1032E000822F089580E090E06DEE7EEF0E94972F90
:1032F00082E090E060E00E94852F83E090E060E053
:103300000E94852F84E090E060E00E94852F85E098
:1033100090E060E00E94852F0895089508951F921F
:103320000F920FB60F9211248F939F93AF93BF9379
:103330008091A301882399F48091A4019091A50123
:10334000A091A601B091A7014196A11DB11D809346
:10335000A4019093A501A093A601B093A701BF91EA
:10336000AF919F918F910F900FBE0F901F90189566
:103370000E94920E0E94A80C0E94750708958091E9
:10338000C601843021F11092A30120E488E190E08D
:103390000FB6F894A895809360000FBE209360004C
:1033A00080E00E94750783B7817F846083BF83B705
:1033B000816083BF7894889583B78E7F83BF88E1CF
:1033C0000FB6F89480936000109260000FBE0895CD
:1033D0000E948D190E94780B0E948E1980E00E9435
:1033E000130B892B81F481E00E94130B892B59F474
:1033F00082E00E94130B892B31F483E00E94130BAF
:1034000020E0892B09F021E0822F089582E084BD1D
:1034100093E095BD9AEF97BD80936E0008958FB7A6
:10342000F8942091A4013091A5014091A6015091FA
:10343000A7018FBFC90108958FB7F8942091A40107
:103440003091A5014091A6015091A7018FBFB9010C
:10345000CA010895EF92FF920F931F93BC018FB79B
:10346000F894E090A401F090A5010091A6011091BC
:10347000A7018FBFA801970140705070CB01A0E059
:10348000B0E0281739074A075B0720F09701261B91
:10349000370B05C09B01209530952E0D3F1DC901AE
:1034A0001F910F91FF90EF9008951F920F920FB60A
:1034B0000F9211248F939F93AF93BF938091A40198
:1034C0009091A501A091A601B091A7010196A11D1F
:1034D000B11D8093A4019093A501A093A601B09380
:1034E000A701BF91AF919F918F910F900FBE0F9049
:1034F0001F9018950E940E2BF89480E29EE420E91C
:1035000031E0F9013197F1F70197D9F787E090EBB6
:10351000A7E0B0EB8093CF019093D001A093D101AD
:10352000B093D2012CE088E190E00FB6F894A89512
:10353000809360000FBE20936000FFCFAF92BF92D8
:10354000CF92DF92EF92FF921F93CF93DF9310E021
:1035500091E0A92EB12CC82EDD24812F0E94130BDF
:103560007C01C0E0D0E0C5010C2E02C0880F991F7D
:103570000A94E2F78E219F21892B51F080E06C2F75
:10358000712F0E94A208C816D90611F481E008C064
:103590002196CC30D10539F71F5F1430F1F680E069
:1035A000DF91CF911F91FF90EF90DF90CF90BF9070
:1035B000AF9008951F93182F8CE20E949E1A8823C3
:1035C00019F0812F0E949E1A1F9108951F93CF9387
:1035D000DF930E946719882311F40E94721985E90C
:1035E00092E00E94C50614E6C0E4DCE905C00E9432
:1035F000780BCE010197F1F71150C8F78EE892E0F1
:103600000E94C50689E20E94DA1A882309F02AC1BD
:103610008AE20E94DA1A882311F00E94721985E06A
:103620000E94DA1A882311F00E947A1A0E94621905
:103630008093A20187E00E94DA1A8823B9F18BE116
:103640000E94DA1A882349F09091A201892F869569
:1036500080958170880F9D7F26C08EE00E94DA1AC7
:10366000882359F09091A201892F8695869580959F
:103670008170880F880F9B7F16C080E10E94DA1A44
:103680009091A201882359F0892F86958695869579
:1036900080958170880F880F880F977F04C0892FCD
:1036A000809581709E7F982B9093A2018091A201BA
:1036B0000E9452190E9458198093C0011092C101B2
:1036C00080EE0E94DA1A882349F08091C001982F79
:1036D000909591708E7F892B8093C00189E30E9421
:1036E000DA1A882359F09091C001892F8695809528
:1036F0008170880F9D7F982B9093C00182EE0E946D
:10370000DA1A882369F09091C001892F86958695F1
:1037100080958170880F880F9B7F982B9093C001B4
:1037200086EE0E94DA1A882379F09091C001892FE1
:1037300086958695869580958170880F880F880F6D
:10374000977F982B9093C00183EE0E94DA1A88230A
:1037500069F09091C001892F82958F70809581705A
:103760008295807F9F7E982B9093C00185E30E9475
:10377000DA1A882379F09091C001892F8295869575
:103780008770809581708295880F807E9F7D982BB1
:103790009093C00181E30E94DA1A882389F0909106
:1037A000C001892F8295869586958370809581705A
:1037B0008295880F880F807C9F7B982B9093C00107
:1037C00081E10E94DA1A882379F08091C001982F54
:1037D000991F9927991F21E09227979599279795E7
:1037E0008F77892B8093C0018091C0010E94461978
:1037F00087E20E94DA1A182F8EE10E94DA1A8111EC
:1038000012608FE10E94DA1A8111146080E20E9436
:10381000DA1A8111186081E20E94DA1A81111061AE
:1038200082E20E94DA1A8111106283E20E94DA1A9F
:103830008111106484E20E94DA1A81111068112348
:1038400041F0812F0E944C19612F70E080E090E0E0
:1038500007C00E945D1990E0A0E0B0E0BC01CD017E
:103860000E942118DF91CF911F9108958091AE01A0
:1038700080FF0BC09091050185E0989FC001112445
:10388000959587959595879530C081FF09C0909152
:10389000050185E0989FC00111249595879525C065
:1038A00082FF03C0909105010DC08091AD01882376
:1038B00019F485E090E0089560910601909105016A
:1038C000861728F085E0989FC00111240EC0899FBB
:1038D00090011124C901880F991F880F991F820F29
:1038E000931F70E00E94502FCB018038910510F09B
:1038F0008FE70895009709F481E008958091AE0163
:1039000080FF05C0809107018695869518C081FFCC
:1039100004C080910701869512C082FF03C0809188
:1039200007010DC02091AD01222319F481E090E040
:1039300008956091080180910701261710F090E02A
:1039400007C0289FC001112470E00E94502FCB01B6
:103950008038910510F08FE70895009709F481E011
:103960000895803F21F40E94361C819504C0813F58
:1039700029F40E94361C8093AA010895823F21F405
:103980000E94361C819504C0833F29F40E94361C96
:103990008093A9010895893F19F40E947E1C05C0F7
:1039A0008A3F31F40E947E1C81958093AB0108957B
:1039B0008B3F21F40E947E1C819504C08C3F29F42A
:1039C0000E947E1C8093AC010895843F21F4809175
:1039D000A801816017C0853F21F48091A801826011
:1039E00011C0863F21F48091A80184600BC0873FFD
:1039F00021F48091A801886005C0883F31F480914E
:103A0000A80180618093A80108958D3F21F48091E1
:103A1000AE01816005C08E3F31F48091AE018260BD
:103A20008093AE0108958F3F29F48091AE018460A8
:103A30008093AE010895803F29F48091AA0187FF09
:103A40006FC007C0813F41F48091AA0118160CF0A5
:103A500067C01092AA0164C0823F29F48091A90135
:103A600087FF5EC007C0833F41F48091A90118160B
:103A70000CF056C01092A90153C0893F29F48091DF
:103A8000AB0118163CF04CC08A3F39F48091AB0171
:103A900087FF46C01092AB0143C08B3F29F4809151
:103AA000AC0187FF3DC006C08C3F39F48091AC016A
:103AB0001816B4F51092AC0133C0843F21F4809104
:103AC000A8018E7F05C0853F31F48091A8018D7FCC
:103AD0008093A80125C0863F21F48091A8018B7FA7
:103AE000F7CF873F21F48091A801877FF1CF883FEE
:103AF00021F48091A8018F7EEBCF8D3F21F480913E
:103B0000AE018E7F0BC08E3F21F48091AE018D7F80
:103B100005C08F3F29F48091AE018B7F8093AE0169
:103B20008091A901882371F48091AA01882351F41E
:103B30008091AB01882331F48091AC01882311F48A
:103B40001092AD010895E8EAF1E085E0DF011D92F1
:103B50008A95E9F71092AD011092AE010895809117
:103B6000A20183FFC1C081ED92E00E94C50600D092
:103B700000D0EDB7FEB731968CEC92E0ADB7BEB792
:103B800012969C938E9311978091A8018283138241
:103B90000E945E070F900F900F900F908AEC92E0BA
:103BA0000E94C50600D000D087EC92E0EDB7FEB7CA
:103BB000928381838091A901992787FD90959483B1
:103BC00083830E945E070F900F900F900F9085ECFB
:103BD00092E00E94C50600D000D082EC92E0ADB722
:103BE000BEB712969C938E9311978091AA01992744
:103BF00087FD909514969C938E9313970E945E0771
:103C00000F900F900F900F9080EC92E00E94C506ED
:103C100000D000D08DEB92E0EDB7FEB792838183A8
:103C20008091AB01992787FD9095948383830E94AF
:103C30005E070F900F900F900F908BEB92E00E9419
:103C4000C50600D000D088EB92E0ADB7BEB71296A3
:103C50009C938E9311978091AC01992787FD909545
:103C600014969C938E9313970E945E070F900F906B
:103C70000F900F9085EB92E00E94C50600D000D017
:103C8000EDB7FEB7319682EB92E0ADB7BEB71296B4
:103C90009C938E9311978091AD01828313820E9431
:103CA0005E070F900F900F900F9080EB92E00E94B4
:103CB000C50600D000D0EDB7FEB731968DEA92E090
:103CC000ADB7BEB712969C938E9311978091AE01BB
:103CD000828313820E945E070F900F900F900F90C7
:103CE0008AEA92E00E94C50688EA91E00E94B50C3B
:103CF0000E940F1A9093B0018093AF0108951F9313
:103D00008091AF019091B0010E942A1AAC012091DC
:103D1000AD01222321F08091040190E006C0909132
:103D200003018AE0989FC00111244817590708F43D
:103D300085C09091A901992369F48091AA018823F3
:103D400049F48091AB01882329F48091AC01882348
:103D500009F474C02F3F19F02F5F2093AD0119169D
:103D600024F40E94361C8093A9018091A90187FF49
:103D700005C00E94361C81958093A9018091AA01FB
:103D8000181624F40E94361C8093AA018091AA017F
:103D900087FF05C00E94361C81958093AA0160911F
:103DA000A901662339F11091AA01112319F177278E
:103DB00067FD7095872F972F0E94552E23E333E3DD
:103DC00043E35FE30E94B92E0E94222E6093A90173
:103DD000612F772767FD7095872F972F0E94552EAB
:103DE00023E333E343E35FE30E94B92E0E94222ED4
:103DF0006093AA018091AB01181624F40E947E1CE6
:103E00008093AB018091AB0187FF05C00E947E1CAF
:103E100081958093AB018091AC01181624F40E9427
:103E20007E1C8093AC018091AC0187FF05C00E948D
:103E30007E1C81958093AC010E94AF1D1F91089557
:103E400080E0089580E008958232F9F0833260F4D2
:103E50008F3199F0803218F48E3109F510C080321C
:103E600081F08132E1F40FC0843299F0843278F02D
:103E7000853289F0863299F410C082E0089581E09D
:103E8000089583E0089584E0089585E0089586E02C
:103E9000089587E0089588E0089589E0089580E016
:103EA000089585E796E00E94C506089588E698E0A3
:103EB0000E94C50600D000D000D0EDB7FEB7319605
:103EC0008AE198E0ADB7BEB712969C938E93119796
:103ED00085E090E09383828381E090E09583848302
:103EE0000E945E078DB79EB706960FB6F8949EBFE8
:103EF0000FBE8DBF0895833009F452C0843030F472
:103F0000813071F0823009F0DAC02AC0853009F4BE
:103F100087C0853008F464C0863009F0D0C0A8C0DE
:103F200020910301822F90E0860F911D8F3F910514
:103F300020F4260F2093030103C08FEF8093030129
:103F400000D000D0EDB7FEB7319689E89AE0ADB762
:103F5000BEB712969C938E931197809103017FC0F8
:103F600020910401822F90E0860F911D8F3F9105D3
:103F700020F4260F2093040103C08FEF80930401E7
:103F800000D000D0EDB7FEB7319687E79AE0ADB725
:103F9000BEB712969C938E931197809104015FC0D7
:103FA00020910501822F90E0860F911D8F3F910592
:103FB00020F4260F2093050103C08FEF80930501A5
:103FC00000D000D0EDB7FEB7319684E69AE0ADB7E9
:103FD000BEB712969C938E931197809105013FC0B6
:103FE00020910601822F90E0860F911D8F3F910551
:103FF00020F4260F2093060103C08FEF8093060163
:1040000000D000D0EDB7FEB731968FE49AE0ADB79F
:10401000BEB712969C938E931197809106011FC094
:1040200020910701822F90E0860F911D8F3F91050F
:1040300020F4260F2093070103C08FEF8093070120
:1040400000D000D0EDB7FEB7319686E39AE0ADB769
:10405000BEB712969C938E9311978091070182832D
:1040600013820E945E070F900F900F900F9008959B
:1040700020910801822F90E0860F911D8F3F9105BE
:1040800020F4260F2093080103C08FEF80930801CE
:1040900000D000D0EDB7FEB731968BE19AE0ADB716
:1040A000BEB712969C938E931197809108018283DC
:1040B00013820E945E070F900F900F900F9008954B
:1040C000833009F446C0843030F4813071F082309E
:1040D00009F0B6C024C0853009F46FC0853008F4FB
:1040E00052C0863009F0ACC08AC0809103016817C5
:1040F00020F4861B8093030102C01092030100D0BC
:1041000000D0EDB7FEB7319686E09BE0ADB7BEB705
:1041100012969C938E9311978091030167C08091B2
:104120000401681720F4861B8093040102C01092DA
:10413000040100D000D0EDB7FEB7319684EF9AE0CD
:10414000ADB7BEB712969C938E93119780910401E0
:104150004DC080910501681720F4861B80930501EE
:1041600002C01092050100D000D0EDB7FEB7319625
:1041700081EE9AE0ADB7BEB712969C938E931197DD
:104180008091050133C080910601681720F4861BD9
:104190008093060102C01092060100D000D0EDB756
:1041A000FEB731968CEC9AE0ADB7BEB712969C93F1
:1041B0008E9311978091060119C0809107016817AD
:1041C00020F4861B8093070102C01092070100D0E3
:1041D00000D0EDB7FEB7319683EB9AE0ADB7BEB72E
:1041E00012969C938E93119780910701828313827C
:1041F0000E945E070F900F900F900F90089580918E
:104200000801681720F4861B8093080102C01092F1
:10421000080100D000D0EDB7FEB7319688E99AE0EA
:10422000ADB7BEB712969C938E93119780910801FB
:10423000828313820E945E070F900F900F900F9061
:1042400008951F93182F00D000D0EDB7FEB7319618
:104250008BE098E0ADB7BEB712969C938E93119702
:10426000128313820E945E070F900F900F900F90A1
:1042700061E070E080E090E004C0660F771F881F67
:10428000991F1A95D2F70E9421180E94920E1F9131
:1042900008951F93873238F58E3108F025C38E308C
:1042A00009F47FC28F3078F4873009F444C2883033
:1042B00020F4863009F01EC31DC2883081F18B3096
:1042C00009F018C311C2863109F4B0C2873120F455
:1042D000803109F00FC37BC2893109F490C28B3160
:1042E00009F008C343C2883309F4FEC1893350F48E
:1042F000893209F4FBC2853309F4F8C2873209F028
:10430000F9C2F4C2833409F4F1C2843420F48A334C
:1043100008F4F0C2E7C2883409F0ECC2FAC182E8BE
:1043200093E00E94C50680EC94E00E94C5060E94BE
:104330005D1900D000D0EDB7FEB731962DEB34E01B
:10434000ADB7BEB712963C932E931197828313821A
:104350000E945E070F900F900F900F908BEB94E0F0
:104360000E94C5060E946219182F88EA94E00E94F4
:10437000C50600D000D0EDB7FEB7319683EA94E0D1
:10438000ADB7BEB712969C938E931197128313828A
:104390000E945E070F900F900F900F9081EA94E0BB
:1043A0000E94C50687E994E00E94C50600D000D0AF
:1043B000EDB7FEB7319684E994E0ADB7BEB712967B
:1043C0009C938E931197812F8170828313820E9418
:1043D0005E070F900F900F900F9082E994E00E947B
:1043E000C50688E894E00E94C50600D000D0EDB76D
:1043F000FEB7319685E894E0ADB7BEB712969C93B0
:104400008E931197812F86958170828313820E94EB
:104410005E070F900F900F900F9083E894E00E943A
:10442000C50687E794E00E94C50600D000D0EDB72E
:10443000FEB7319684E794E0ADB7BEB712969C9371
:104440008E93119716951695812F81708283138212
:104450000E945E070F900F900F900F9082E794E0FC
:104460000E94C50689E694E00E94C50600D000D0EF
:10447000EDB7FEB7319686E694E0ADB7BEB71296BB
:104480009C938E93119716951170128313820E943C
:104490005E070F900F900F900F9084E694E00E94BB
:1044A000C5060E945819182F80E594E00E94C506A1
:1044B00000D000D0EDB7FEB731968BE494E0ADB7F5
:1044C000BEB712969C938E931197128313820E940B
:1044D0005E070F900F900F900F9089E494E00E9478
:1044E000C50680E394E00E94C50600D000D0EDB779
:1044F000FEB731968DE294E0ADB7BEB712969C93AD
:104500008E931197812F8170828313820E945E07A0
:104510000F900F900F900F908BE294E00E94C506D1
:1045200084E194E00E94C50600D000D0EDB7FEB74C
:10453000319681E194E0ADB7BEB712969C938E930D
:104540001197812F86958170828313820E945E0766
:104550000F900F900F900F908FE094E00E94C5068F
:104560008DEF93E00E94C50600D000D0EDB7FEB7F6
:1045700031968AEF93E0ADB7BEB712969C938E93B7
:104580001197812F869586958170828313820E9470
:104590005E070F900F900F900F9088EF93E00E94AE
:1045A000C50686EE93E00E94C50600D000D0EDB7A8
:1045B000FEB7319683EE93E0ADB7BEB712969C93EB
:1045C0008E931197812F869586958695817082832B
:1045D00013820E945E070F900F900F900F9081EE54
:1045E00093E00E94C50687ED93E00E94C50600D0C7
:1045F00000D0EDB7FEB7319684ED93E0ADB7BEB70E
:1046000012969C938E931197812F8295817082834D
:1046100013820E945E070F900F900F900F9082ED13
:1046200093E00E94C50680EC93E00E94C50600D08E
:1046300000D0EDB7FEB731968DEB93E0ADB7BEB7C6
:1046400012969C938E931197812F829586958170F7
:10465000828313820E945E070F900F900F900F903D
:104660008BEB93E00E94C5068FE993E00E94C5069C
:1046700000D000D0EDB7FEB731968CE993E0ADB72E
:10468000BEB712969C938E93119712951695169518
:104690001370812F8170828313820E945E070F90B6
:1046A0000F900F900F908AE993E00E94C50682E96F
:1046B00093E00E94C50600D000D0EDB7FEB731965A
:1046C0008FE893E0ADB7BEB712969C938E93119787
:1046D0001695128313820E945E070F900F900F9021
:1046E0000F908DE893E002C080ED94E00E94C50633
:1046F00081E005C18091A201807F8093A2010E9488
:10470000511F8EE793E00E94C50681E08093B101BE
:10471000F6C00E94920E82E693E00E94C50680E1F8
:1047200097E220E931E0F9013197F1F70197D9F7E4
:104730000E947A1ADDCF8091A201982F90959170F6
:104740008E7F892B8093A201992341F086E593E027
:104750000E94C5068091A2018E601DC089E493E08D
:104760000E94C5068091A201817F15C08091A2019F
:10477000982F969590959170292F220F8D7F822BDF
:104780008093A201992351F08CE393E00E94C50627
:104790008091A20181608093A201AACF8EE293E072
:1047A000A5CF8091A201982F96959695909591709E
:1047B000292F220F220F8B7F822B8093A201992316
:1047C00019F08FE193E0E2CF8FE093E08FCF8091FB
:1047D000A201982F96959695969590959170292F70
:1047E000220F220F220F877F822B8093A201992311
:1047F00019F083E093E0CACF86EF92E077CF83E9A8
:1048000097E00E94C5068AE797E00E94C50689E303
:1048100097E00E94C50686E097E00E94C50687ECF7
:1048200096E00E94C5068CE996E060CF8DEF97E098
:104830000E94C5060E94A80C00D000D0EDB7FEB7BC
:10484000319623EE37E0ADB7BEB712963C932E9368
:104850001197828313820E945E07EDB7FEB73196EF
:104860008CEC97E0ADB7BEB712969C938E931197E0
:1048700080910901828313820E945E07EDB7FEB723
:10488000319689EB97E0ADB7BEB712969C938E93A5
:1048900011978091B301828313820E945E070F906B
:1048A0000F900F900F900E941C1A00D000D000D0E3
:1048B00022EA37E0EDB7FEB732832183ADB7BEB74A
:1048C00013966D937D938D939C9316970E945E072C
:1048D00081E0EDB7FEB736960FB6F894FEBF0FBE77
:1048E000EDBF0DC0895303C08D5101C080E00E940F
:1048F0002121FECE84EF92E00E94C50680E01F9148
:1049000008951F93182F8091B101813079F0813083
:1049100020F0823009F095C148C0E0910101F0918A
:1049200002018081823209F08EC107C0E09101014D
:10493000F09102018081823249F4812F0E94201F70
:10494000882349F5812F0E9449217EC1812F0E9431
:10495000221F882301F5143191F0153128F41B3002
:1049600039F01031D9F40EC0193249F01833B1F4CE
:104970000E94511F80E198E00E94C5060CC0109271
:10498000B10110C00E94561F86E198E00E94C50642
:1049900082E08093B10181E090E056C184E198E02B
:1049A0000E94C50680E090E04FC1143288F41E31A9
:1049B00008F0F2C01B3009F11C3020F4173009F068
:1049C0001CC104C1133159F1143109F016C118C0CA
:1049D0001B3409F4EFC01C3430F4193289F0183359
:1049E00009F00BC10AC0113509F4E0C0123509F411
:1049F000D9C01E3409F001C1E3C00E94561F00C196
:104A00008091B201882319F01092B201F9C08BE7AE
:104A100099E00E94C50681E08093B10115C18DE047
:104A20009AE00E94C5068BEF99E00E94C50600D06F
:104A300000D0EDB7FEB7319688EF99E0ADB7BEB7BD
:104A400012969C938E931197809103018283138217
:104A50000E945E070F900F900F900F9086EF99E0E5
:104A60000E94C50684EE99E00E94C50600D000D0E1
:104A7000EDB7FEB7319681EE99E0ADB7BEB71296AD
:104A80009C938E93119780910401828313820E94DC
:104A90005E070F900F900F900F908FED99E00E949E
:104AA000C50680ED99E00E94C50600D000D0EDB7A4
:104AB000FEB731968DEC99E0ADB7BEB712969C93D8
:104AC0008E93119780910501828313820E945E0765
:104AD0000F900F900F900F908BEC99E00E94C506FD
:104AE0008AEB99E00E94C50600D000D0EDB7FEB772
:104AF000319687EB99E0ADB7BEB712969C938E9333
:104B0000119780910601828313820E945E070F90A5
:104B10000F900F900F9085EB99E00E94C50680EAF8
:104B200099E00E94C50600D000D0EDB7FEB73196DF
:104B30008DE999E0ADB7BEB712969C938E9311970D
:104B400080910701828313820E945E070F900F906D
:104B50000F900F908BE999E00E94C50684E899E0D8
:104B60000E94C50600D000D0EDB7FEB7319681E8AF
:104B700099E0ADB7BEB712969C938E931197809132
:104B80000801828313820E945E070F900F900F909E
:104B90000F908FE799E02EC0812F0E94241F8093F1
:104BA000B2012EC08091B20161E007C08091B201D4
:104BB00061E009C08091B2016AE00E947B1F20C0C1
:104BC0008091B2016AE00E9460201AC08EE1809359
:104BD000030182E3809304018AE08093050184E16C
:104BE0008093060188E08093070188E280930801A2
:104BF0008EE699E00E94C50603C08CE699E01DC0D0
:104C00002091B2012223B9F000D000D0EDB7FEB759
:104C1000319686E699E0ADB7BEB712969C938E9317
:104C20001197228313820E945E0781E00F900F90FC
:104C30000F900F9009C083E699E00E94C50681E0BD
:104C400003C01092B10180E01F9108958091B701D7
:104C50008F5F8093B70162E30E94442F9923A9F5E7
:104C60001092B7018091B501882379F18091C60136
:104C7000843049F59091E9008091EC0080FD02C0FC
:104C800080E001C080E89F70982B84E08093E90069
:104C90008091EB0080FF14C08091EE0087FD03C07F
:104CA0000FC01092F1008091E80085FDFACF80914D
:104CB000E80080FF05C08091E8008E778093E800CF
:104CC0009F709093E9001092B50108958091B4010E
:104CD0000895682F8FB7F8941092B5018FBF809117
:104CE000C601843011F08FEF08959091E900809112
:104CF000EC0080FD02C080E001C080E8392F3F70E9
:104D0000382B84E08093E9008091EB0080FF43C062
:104D10008091EE0087FF3FC08091B601882321F08B
:104D20008091E80085FF37C01092B60125E040EA87
:104D30005FE012C08091C601843069F58091EB007C
:104D400085FD29C0222321F481E08093B60123C090
:104D50002150CA010197F1F78091E80085FFEACF61
:104D60006093F1008091E80085FD0AC08091E80021
:104D700080FFFCCF8091E8008E778093E80006C02A
:104D80009FB7F89481E08093B5019FBF3F70309347
:104D9000E90080E008953F703093E9008FEF0895B7
:104DA000DF93CF9300D00F92CDB7DEB7AC018091E7
:104DB000C601843029F583E08093E9002FEF95ED5B
:104DC00005C0892F8A95F1F7222329F08091E80008
:104DD000215085FFF6CF8091E80085FF11C05B83ED
:104DE0004A8383E08983CE01019663E070E040E06E
:104DF00050E00E94302A8091E8008E778093E8008E
:104E00000F900F900F90CF91DF910895DF93CF9384
:104E100000D00F92CDB7DEB7AC018091C6018430CF
:104E200029F583E08093E9002FEF95ED05C0892FE8
:104E30008A95F1F7222329F08091E800215085FF1F
:104E4000F6CF8091E80085FF11C05B834A8382E042
:104E50008983CE01019663E070E040E050E00E945B
:104E6000302A8091E8008E778093E8000F900F90B1
:104E70000F90CF91DF910895AC018091C6018430ED
:104E800001F582E08093E9002FEF95ED05C0892FB1
:104E90008A95F1F7222329F08091E800215085FFBF
:104EA000F6CF8091E80085FF0CC0CA0165E070E094
:104EB00040E050E00E94302A8091E8008E77809395
:104EC000E80008950F931F93182F092F8091C601B2
:104ED000843061F581E08093E9009FEF25ED05C006
:104EE000822F8A95F1F7992329F08091E80091505B
:104EF00085FFF6CF8091E80085FF18C0812F902FA5
:104F000068E070E040E050E00E94302A8091E800C4
:104F10008E778093E800A8EBB1E0212F302FC901F4
:104F2000FC0188E001900D928150E1F71F910F91F3
:104F300008958EE29BE00E94C506089582E39BE0FF
:104F40000E94C506089586E39BE00E94C506109264
:104F5000C50108958AE39BE00E94C5068091C501C2
:104F6000882349F40E940E2B0E946F2B8091E2004F
:104F700084608093E200089584B7877F84BF88E1CE
:104F80000FB6F89480936000109260000FBE80E826
:104F900080936100109261000E94410D0E940E2BCF
:104FA0000E946F2B8091E20084608093E20089E68A
:104FB00096E20E940C1978940E940C2E0E94250EF5
:104FC0008AE091E00E94A30C89E19BE00E94C50663
:104FD00010C085E19BE00E94C5060E94BF19809128
:104FE000C401882331F00E94E819882311F00E943F
:104FF00045298091C601853061F30E94760DF9CF75
:105000008091C801833009F455C0843030F4813078
:1050100071F0823009F0AFC096C08A3009F483C0C5
:105020008B3009F468C0893009F0A5C020C0809198
:10503000C701813A09F09FC08091E800877F809383
:10504000E8008091CB019091CC01892B21F488EB71
:1050500091E068E003C080E090E060E070E00E94D2
:105060005B298091E8008B778093E8000895809118
:10507000C701813209F07FC08091CB019091CC01B2
:10508000892B09F078C08091E800877F8093E80041
:1050900005C08091C601882309F46DC08091E800A5
:1050A00082FFF7CF8091F1008093B4018091E800F6
:1050B0008B771CC08091C701813A09F05CC0809158
:1050C000CB019091CC01892B09F055C08091E8006B
:1050D000877F8093E8008091E80080FFFCCF80917B
:1050E00009018093F1008091E8008E778093E800B9
:1050F0000E94BB2A08958091C7018132E1F5809119
:10510000CB019091CC01892BB1F58091E800877F8C
:105110008093E8000E94BB2A8091C9018093090115
:105120000E94920E08958091C701813221F58091ED
:10513000E800877F8093E8000E94BB2A8091CA0123
:105140008093B30108958091C701813AA1F48091C1
:10515000E800877F8093E8008091E80080FFFCCF23
:105160008091B3018093F1008091E8008E77809365
:10517000E8000E94BB2A089581E061EC42E00E94B1
:10518000832A82E061EC42E00E94832A83E061ECA2
:1051900042E00E94832A84E061EC42E20E94832A7A
:1051A00008958AE29BE00E94C5060E94B8190895FE
:1051B000DA019330C1F0943030F4913051F09230F4
:1051C00009F05BC00BC0913221F1923209F055C059
:1051D00037C0E3E2FCE022E130E053C0E5E3FCE06D
:1051E00024E730E04EC0813051F0813020F0823031
:1051F00009F043C008C0E9EAFCE0849107C0EDEA89
:10520000FCE0849103C0E1EDFCE08491282F30E0C4
:1052100038C0613051F0613028F0623059F06330AD
:1052200061F50BC0E7E4FCE002C0E0E6FCE029E049
:1052300030E027C0E9E7FCE0FACFE2E9FCE0F7CF95
:10524000613061F0613028F0623069F06330A9F4B8
:105250000FC0EEE3FBE020E430E013C0EEE7FBE03C
:105260002DE430E00EC0EBECFBE026E330E009C0BB
:10527000E1E0FCE022E230E004C0E0E0F0E020E029
:1052800030E0ED93FC93C901089580E189BD82E18E
:1052900089BD09B400FEFDCF8091D8008F7D809339
:1052A000D8008091E00082608093E0008091E0006F
:1052B00081FDFCCF08959C014091CD015091CE011C
:1052C0004617570718F4F90190E043C061157105BE
:1052D00011F0AB01F8CF8091E8008E778093E80061
:1052E00040E050E0F0CF8091C601882309F447C028
:1052F000853009F446C08091E80083FD44C0809168
:10530000E80082FD36C08091E80080FF22C08091D5
:10531000F3009091F200782F60E0292F30E0262BE7
:10532000372B07C081918093F100415050402F5F8F
:105330003F4F4115510519F02830310598F390E0A1
:105340002830310509F491E08091E8008E77809350
:10535000E8004115510539F6992329F60AC08091D4
:10536000C601882361F0853061F08091E80083FDFB
:105370000AC08091E80082FFF2CF80E0089582E0C9
:10538000089583E0089581E008959C014091CD0146
:105390005091CE014617570718F4F90190E044C028
:1053A0006115710511F0AB01F8CF8091E8008E779F
:1053B0008093E80040E050E0F0CF8091C601882360
:1053C00009F448C0853009F447C08091E80083FDA6
:1053D00045C08091E80082FD37C08091E80080FFE1
:1053E00023C08091F3009091F200782F60E0292F84
:1053F00030E0262B372B08C084918093F100319642
:10540000415050402F5F3F4F4115510519F0283052
:10541000310590F390E02830310509F491E0809156
:10542000E8008E778093E8004115510531F6992305
:1054300021F60AC08091C601882361F0853061F0B1
:105440008091E80083FD0AC08091E80082FFF2CFDE
:1054500080E0089582E0089583E0089581E0089552
:10546000BF92CF92DF92EF92FF920F931F93CF9351
:10547000DF93182F092F7B016A010E94DC2AB82EC6
:105480008823B1F5812F902F9C01E901C114D1042B
:1054900039F0F60180819181E81AF90AC80FD91F05
:1054A00000E010E022C08091E80085FD16C08091E8
:1054B000E8008E778093E800C114D10449F0F6012A
:1054C00080819181800F911F9183808385E011C03D
:1054D0000E94DC2A882349F00CC089918093F10056
:1054E0000894E108F1080F5F1F4FE114F104D9F6A9
:1054F0008B2DDF91CF911F910F91FF90EF90DF9057
:10550000CF90BF900895382F282F2EC0822F8F70F4
:105510008093E900231721F4762F942F50E006C0E2
:105520007091EC009091ED005091F00091FF1BC044
:105530008091EB008E7F8093EB008091ED008D7F5A
:105540008093ED008091EB0081608093EB0070937D
:10555000EC009093ED005093F0008091EE0087FDF9
:1055600002C080E008952F5F273080F23F703093B3
:10557000E90081E008958091C70188239CF404C06C
:105580008091C6018823B9F08091E80082FFF8CFAE
:105590008091E8008B778093E80008958091C601A0
:1055A000882349F08091E80080FFF8CF8091E800DF
:1055B0008E778093E80008954091E4005091E500D3
:1055C00024E68091EC0080FF24C08091E80080FDFB
:1055D0001EC08091C601882311F482E008958530B1
:1055E00011F483E008958091EB0085FF02C081E013
:1055F00008958091E4009091E5008417950709F3E0
:10560000222311F484E008952150AC01DACF80E028
:1056100008958091E80082FFDCCFF9CF0E94812BB2
:105620000E94892BE0EEF0E0808181608083A8ED0C
:10563000B0E08C918F778C9319BCE7EDF0E080811E
:105640008E7F80838C918F7E8C931092C5010895FC
:10565000EF92FF920F931F930E94812B0E94892B40
:1056600008ED10E0F80180818F7780838081806869
:10567000808380818F7D808319BC1092C601109237
:10568000C2011092C4011092C30180EEE82EF12CE9
:10569000F70180818B7F8083F80180818160808326
:1056A00080E060E042E00E94832AE1EEF0E0808149
:1056B0008E7F8083E2EEF0E0808181608083808154
:1056C00088608083F70180818E7F8083F8018081EC
:1056D000806180831F910F91FF90EF900895E8ED16
:1056E000F0E080818F7E8083E7EDF0E08081816053
:1056F000808384E082BF81E08093C5010E94282BD3
:105700000895E8EDF0E080818E7F80831092E200C2
:1057100008951092DA001092E10008951F920F92FE
:105720000FB60F9211241F932F933F934F935F93C4
:105730006F937F938F939F93AF93BF93EF93FF9359
:105740001091E9008091EC001092E9008091F00046
:10575000877F8093F00078940E949C2C1092E9003F
:105760008091F00088608093F0001F701093E90032
:10577000FF91EF91BF91AF919F918F917F916F9129
:105780005F914F913F912F911F910F900FBE0F90FE
:105790001F9018951F920F920FB60F9211242F93FE
:1057A0003F934F935F936F937F938F939F93AF93A9
:1057B000BF93EF93FF938091E10082FF0BC0809134
:1057C000E20082FF07C08091E1008B7F8093E100BF
:1057D0000E9426268091DA0080FF1FC08091D800A9
:1057E00080FF1BC08091DA008E7F8093DA00809169
:1057F000D90080FF0DC080E189BD82E189BD09B477
:1058000000FEFDCF81E08093C6010E94AA2705C05B
:1058100019BC1092C6010E94A3278091E10080FF6D
:1058200019C08091E20080FF15C08091E2008E7F58
:105830008093E2008091E20080618093E200809199
:10584000D80080628093D80019BC85E08093C6019F
:105850000E9499278091E10084FF30C08091E2008E
:1058600084FF2CC080E189BD82E189BD09B400FEBE
:10587000FDCF8091D8008F7D8093D8008091E1008A
:105880008F7E8093E1008091E2008F7E8093E20022
:105890008091E20081608093E2008091C2018823C0
:1058A00011F084E007C08091E30087FD02C081E031
:1058B00001C083E08093C6010E94D1288091E1005D
:1058C00083FF29C08091E20083FF25C08091E10021
:1058D000877F8093E10082E08093C6011092C2012D
:1058E0008091E1008E7F8093E1008091E2008E7FC5
:1058F0008093E2008091E20080618093E20080E08A
:1059000060E042E00E94832A8091F00088608093EA
:10591000F0000E949E27FF91EF91BF91AF919F9160
:105920008F917F916F915F914F913F912F910F9048
:105930000FBE0F901F9018951F93DF93CF93CDB795
:10594000DEB7AC970FB6F894DEBF0FBECDBFE7EC65
:10595000F1E08091F100819321E0EF3CF207C9F77B
:105960000E9400288091E80083FF3EC18091C7011A
:105970003091C801353009F487C0363040F43130F9
:10598000C9F1313070F0333009F02EC133C03830F6
:1059900009F4F9C0393009F409C1363009F024C1DD
:1059A00097C0803821F0823809F01EC108C090915C
:1059B000C3018091C401882399F0926011C0809145
:1059C000CB018F708093E9008091EB0090E025E09F
:1059D000969587952A95E1F7982F91701092E90096
:1059E0008091E800877F8093E8009093F100109207
:1059F000F100D4C0882319F0823009F0F5C090E09E
:105A00008F719070009721F0029709F0EDC00CC0E3
:105A10008091C901813009F0E7C01092C401333090
:105A200069F58093C4012AC08091C901882331F5AA
:105A30002091CB012F7009F4D7C02093E900809109
:105A4000EB0080FF1BC0333021F48091EB008062BB
:105A500013C08091EB0080618093EB0081E090E0C7
:105A600002C0880F991F2A95E2F78093EA001092EE
:105A7000EA008091EB0088608093EB001092E900CF
:105A80008091E800877F8DC0882309F0ADC0109118
:105A9000C9011F778091E3008078812B8093E30018
:105AA0008091E800877F8093E8000E94BB2A809164
:105AB000E80080FFFCCF8091E30080688093E300E2
:105AC000112311F482E001C083E08093C6018CC0F1
:105AD0008058823008F088C08091C9019091CA0135
